:020000040000FA
:06000000F1EF11F0120007
:020006001200E6
:0600080004EF20F01200DD
:060018000CEF20F01200C5
:02001E000100DF
:0C002000FE2300008E0000000F00000016
:04002C00D9CFE6FF43
:10003000E1CFD9FFE652A098636A626A0F01266B8E
:10004000010EE66EE66AE66A270EE66E0F0EE66EB3
:10005000B0EC11F00B6E050EE15E0B500F01160EA9
:10006000396F9F0E376F7B0E366FDF6ADF500B6E76
:100070000C6A080E0B5C000E0C5810E2DF50040DE9
:10008000F3CFE9FFF4CFEAFF000EE926040EEA22DF
:10009000EE6AEE6AEE6AEE6ADF2AE8D7658C0F0137
:1000A000386B6598659C62A607D062960001736BF9
:1000B000786B796B7A6BF7D70001010E8A6F8B6FC3
:1000C0008C6B8D6B806BDF6A020EDF5C26E2EA6A66
:1000D000DF34FE0BEA36E96E6B0EE926000EEA22EB
:1000E000EE6AED6AEA6ADF34FE0BEA36E96E670E05
:1000F000E926000EEA22EE6AED6ADF50EA6A840F12
:10010000E96E000EEA22EF6ADF50EA6A860FE96EB6
:10011000000EEA22EF6ADF2AD7D70001080E6B6FC4
:10012000040E6C6F0F01160E266F0401200E026F75
:10013000040E036F080E016F840E006F0001616BE7
:10014000606BE552E552E7CFD9FF1200D9CFE6FF49
:10015000E1CFD9FFE6520001605118E107D0656A8E
:100160000F01366B0001606BA198C0D0656A0F016A
:10017000366B160E396F9F0E376F7B0E366F65B676
:1001800002D06586FCD70001010E606F60050AE1B0
:1001900065BA08D0626A0F01366B36813689000174
:1001A000020E606F6250040B07E00F013651040B22
:1001B00003E06294C4EC06F065A202D0A19896D048
:1001C0006250010B09E00F013651010B05E02EDFF3
:1001D0000001040E606F62906250100B07E00F0187
:1001E0003651100B03E0AEEC06F0629862AC13D00F
:1001F0000F0136AD0FD0010EE66EE66A000EE66E18
:10020000E66A730EE66EE66AD2EC0CF00B6E060E32
:10021000E15E0B50629C6250200B06E00F013651EC
:10022000200B02E094EC06F06250020B14E00F0188
:100230003651020B10E0010EE66EE66A000EE66E25
:10024000E66AE6687F0EE66ED2EC0CF00B6E060EE8
:10025000E15E0B50636A040E0001E76E6019E8AEC0
:1002600002D0E73402D0E750605D02E2A1983ED0B0
:100270000F0136A73AD0DF6A040EDF5C36E262A6D1
:1002800031D064CF81F000018151780BE842E8421F
:10029000E842826F629681B508D08251EA6A860F81
:1002A000E96E000EEA22EF7007D08251EA6A840FED
:1002B000E96E000EEA22EF70825103E1DCEC06F0F9
:1002C00010D0000EE66EE66A810EE66E000EE66E57
:1002D000720EE66EE66AD2EC0CF00B6E060EE15E74
:1002E0000B5001D002D0DF2AC7D7A198E552E552C2
:1002F000E7CFD9FF1200D9CFE6FFE1CFD9FF020E39
:10030000E126FD0EDBA407D0E66AFE0EDBCFE6FF9A
:1003100005DAE552E552FD0EDBA208D0010EE66ECD
:10032000FE0EDBCFE6FFFAD9E552E552FE0EDB50BA
:100330000C6A260F0B6E0F0E0C220BC0DEFF0CC0DA
:10034000DDFFDECFE9FFDDCFEAFFFD0EDBCFEFFF04
:10035000020EE15C02E2E16AE552E16EE552E7CFAE
:10036000D9FF1200D9CFE6FFE1CFD9FF020EE12677
:10037000FD0EDB500FE0FE0EEA6ADB34FE0BEA36C0
:10038000E96E6B0EE926000EEA22EECFDEFFEDCF1E
:10039000DDFF0ED0FE0EEA6ADB34FE0BEA36E96EB4
:1003A000670EE926000EEA22EECFDEFFEDCFDDFF7D
:1003B000D9CFE9FFDACFEAFFEE50ED1003E1F36A9F
:1003C000F46A49D0DECFE9FFDDCFEAFF020EE9266D
:1003D000000EEA22FB0EDBCFEEFFFC0EDBCFEDFFC3
:1003E000DECFE9FFDDCFEAFFEE52FA0EDBCFEFFF03
:1003F000400E0B6EDECFE9FFDDCFEAFF0B50EF16AC
:10040000880E0B6EDECFE9FFDDCFEAFF0B50EF1257
:10041000FD0EDB500CE0FE0EEA6ADB34FE0BEA3622
:10042000E96E6B0EE926000EEA22EF740BD0FE0E89
:10043000EA6ADB34FE0BEA36E96E670EE926000E47
:10044000EA22EF74DECF0BF0DDCF0CF00BC0F3FF30
:100450000CC0F4FF00D0020EE15C02E2E16AE5525A
:10046000E16EE552E7CFD9FF1200D9CFE6FFE1CF29
:10047000D9FF020EE126FE0EDB5020E165C0E9FF48
:1004800066C0EAFFEE52080EEF6E65C0E9FF66C077
:10049000EAFF020EE926000EEA22200EEE6E040E9E
:1004A000ED6E65C0E9FF66C0EAFF8C0EEF6E6BC0B3
:1004B000E9FF6CC0EAFF840EEF6E3DD0FD0EDB500D
:1004C000E8240D6EFE0EDB50040DF3500D24040DD8
:1004D000F3CF0BF0F4CF0CF0000E0B26040E0C2221
:1004E0000BC0DEFF0CC0DDFF840E0B6EDECFE9FF1C
:1004F000DDCFEAFF0B50EF12FD0EDB50E8240D6E4E
:10050000FE0EDB50040DF3500D24010F040DF3CF4C
:100510000BF0F4CF0CF0000E0B26040E0C220BC0D7
:10052000DEFF0CC0DDFF840E0B6EDECFE9FFDDCFFA
:10053000EAFF0B50EF12020EE15C02E2E16AE552C3
:10054000E16EE552E7CFD9FF1200D9CFE6FFE1CF48
:10055000D9FF65A84ED0FE0EEA6ADB34FE0BEA3600
:10056000E96E6B0EE926000EEA22EE50EFCFEAFFAD
:10057000E96E400EEE16EE6AEE6AEE6AFE0EEA6A6A
:10058000DB34FE0BEA36E96E6B0EE926000EEA223A
:10059000EE50EFCFEAFFE96EEE7CFE0EEA6ADB3446
:1005A000FE0BEA36E96E6B0EE926000EEA22EF74C6
:1005B000400E0B6EFE0EEA6ADB34FE0BEA36E96E85
:1005C0006B0EE926000EEA22EE50EFCFEAFFE96E4D
:1005D0000B50EF16FE0EEA6ADB34FE0BEA36E96ECC
:1005E0006B0EE926000EEA22EE50EFCFEAFFE96E2D
:1005F000EF7CE552E7CFD9FF120000018A514DE1AF
:10060000010E8A6F8B5149E1010E8B6F020E705DF6
:100610000DE16BC0E9FF6CC0EAFFEE52EF6A6BC000
:10062000E9FF6CC0EAFFC80EEF6E37D0700535E108
:10063000836B63C0E9FF64C0EAFFEE52080EEF6E01
:1006400063C0E9FF64C0EAFF020EE926000EEA2259
:10065000200EEE6E040EED6E63C0E9FF64C0EAFF8B
:10066000840EEF6E010E836F65C0E9FF66C0EAFF7E
:10067000EE52080EEF6E65C0E9FF66C0EAFF020E9B
:10068000E926000EEA22200EEE6E040EED6E65C025
:10069000E9FF66C0EAFF800EEF6E120000018C6B6E
:1006A0008D6B020E705D1AE165C0E9FF66C0EAFF5E
:1006B000EE52080EEF6E65C0E9FF66C0EAFF020E5B
:1006C000E926000EEA22280EEE6E040EED6E65C0DD
:1006D000E9FF66C0EAFFC80EEF6E1FD07451040137
:1006E000265D000175510401275904E226C474F007
:1006F00027C475F0D1D86BC0E9FF6CC0EAFF020EC9
:10070000E926000EEA22280EEE6E040EED6E6BC096
:10071000E9FF6CC0EAFFC80EEF6E1200D9CFE6FF0A
:10072000E1CFD9FF020EE126000EDE6E040EDD6E73
:10073000FD0EDB50E8240D6EFE0EDB50040DF35071
:100740000D24040DF3CF0BF0F4CF0CF0D9CFE9FF5B
:10075000DACFEAFF0B50EE260C50ED22DECFE9FF98
:10076000DDCFEAFFEF9EFD0EDB500FE1FE0EEA6AE1
:10077000DB34FE0BEA36E96E670EE926000EEA224C
:10078000DECFEEFFDDCFEDFF0ED0FE0EEA6ADB34EA
:10079000FE0BEA36E96E6B0EE926000EEA22DECF8A
:1007A000EEFFDDCFEDFFDECFE9FFDDCFEAFFEF9C0F
:1007B000DECFE9FFDDCFEAFF040EE926000EEA22D4
:1007C000EF8C020EE15C02E2E16AE552E16EE55275
:1007D000E7CFD9FF12006598000173BF2BD078AF27
:1007E00009D0020E706F8D5101E158DF00018B6B53
:1007F0008A6B1FD065C0E9FF66C0EAFFEE52080EA3
:10080000EF6E65C0E9FF66C0EAFF020EE926000E42
:10081000EA22200EEE6E040EED6E65C0E9FF66C0A2
:10082000EAFF8C0EEF6E6BC0E9FF6CC0EAFF840E2E
:10083000EF6E31D0040120AF0DD00001010E706FBA
:100840008C5101E12BDF00018B6B8A6B895101E137
:10085000D4DE21D00001020E706F65C0E9FF66C0D2
:10086000EAFFEE52080EEF6E65C0E9FF66C0EAFFD0
:10087000020EE926000EEA22200EEE6E040EED6E48
:1008800065C0E9FF66C0EAFF840EEF6E8B6B8A6B72
:10089000895101E1B2DE1200D9CFE6FFE1CFD9FFE5
:1008A000E652080EDF6E0001745D000E75590BE212
:1008B00074C0DFFF6F5103E1010E6F6F04D06F054D
:1008C00002E1020E6F6FDF500B6E0C6A0B50745D0D
:1008D000746F0C507559756F6BC0E9FF6CC0EAFFFF
:1008E000EE52DFCFEFFF280E7D6F040E7E6F73B1E7
:1008F00019D0DF5016E071C0F6FF72C0F7FF712B00
:10090000000E72230800F550E66E7DC0E9FF7EC040
:10091000EAFF7D2B000E7E23E552E750EF6EDF06E7
:10092000E8D717D0DF5015E071C0E9FF72C0EAFFC9
:10093000712B000E7223EF50E66E7DC0E9FF7EC082
:10094000EAFF7D2B000E7E23E552E750EF6EDF06B7
:10095000E9D7E552E552E7CFD9FF1200D9CFE6FF3C
:10096000E1CFD9FF020EE12663C0E9FF64C0EAFFD0
:10097000EE52EFCFDFFFDFCF0BF00B500001795DC0
:10098000000E7A5902E279C0DFFFDF500B6E0C6A6D
:100990000B50795D796F0C507A597A6F010EDB6AD2
:1009A000DF50F36E010EDBCFF4FFF350F45C16E280
:1009B000010EDB50EA6A280FE96E040EEA22EF50BE
:1009C000E66E76C0E9FF77C0EAFF762B000E77234C
:1009D000E552E750EF6E010EDB2AE2D7000ED88019
:1009E0007955000E7A5528E265C0E9FF66C0EAFF36
:1009F000EE52080EEF6E65C0E9FF66C0EAFF020E18
:100A0000E926000EEA22280EEE6E040EED6E63C09B
:100A1000E9FF64C0EAFFEF50400B07E165C0E9FF62
:100A200066C0EAFFC80EEF6E06D065C0E9FF66C07B
:100A3000EAFF880EEF6E28D065C0E9FF66C0EAFFC6
:100A4000EE52080EEF6E65C0E9FF66C0EAFF020EC7
:100A5000E926000EEA22200EEE6E040EED6E65C051
:100A6000E9FF66C0EAFF840EEF6E7B517C1107E060
:100A700005D07CC0FAFF00017B51F96EFADF00015E
:100A8000789F895101E1B9DD020EE15C02E2E16A81
:100A9000E552E16EE552E7CFD9FF1200D9CFE6FF6C
:100AA000E1CFD9FFE6520001738F010EE66EE66AD0
:100AB000E66A270EE66E0F0EE66EB0EC11F00B6ED6
:100AC000050EE15E0B50DF6ADF500B6E0C6A080EFC
:100AD0000B5C000E0C5810E2DF50040DF3CFE9FF61
:100AE000F4CFEAFF000EE926040EEA22EE6AEE6A6F
:100AF000EE6AEE6ADF2AE8D7658CDF6A020EDF5CF9
:100B000010E2DF50EA6A840FE96E000EEA22EF6A13
:100B1000DF50EA6A860FE96E000EEA22EF6ADF2AEA
:100B2000EDD7010EE66EE66AE66A620EE66E000E2C
:100B3000E66EB0EC11F00B6E050EE15E0B50659C9D
:100B40000001080E6B6F040E6C6F000E636F040ED5
:100B5000646F63C065F064C066F022C461F06151E7
:100B600003E1100E606F13D0010EE66EE66A610EAF
:100B7000E66E000EE66E010EE66EE66AD2EC0CF052
:100B80000B6E060EE15E0B500001200E606FE55209
:100B9000E552E7CFD9FF1200800E0401205D5BE132
:100BA0000001C00E736F04012351030A34E0010AEF
:100BB0000EE0030A03E00001736B4DD00001300E1C
:100BC000716F210E726F120E746F756B44D02251CB
:100BD000F66EF76AD890F636F736D20EF626210E64
:100BE000F7220900F5CF71F00A00F5CF72F0020E7E
:100BF0000001F76A7125F66E7251F7220800F5CFF1
:100C000074F0030EF76A7125F66E7251F722080030
:100C1000F5CF75F020D0030E225D1AE22251F66E58
:100C2000F76AD890F636F736D40EF626210EF7225C
:100C30000900F5CF71F00A00F5CF72F071C0F6FF30
:100C400072C0F7FF0800F5500001746F756B02D099
:100C50000001736B00D01200D9CFE6FFE1CFD9FFBE
:100C6000020EE1260401286B296B20511F0B020A9A
:100C700012E0030A0DE0010A01E042D00001738F87
:100C80000401288100017F0502E10401288338D096
:100C90000001738F35D00001738F040124BF10D081
:100CA00024510F0BE96EEA6AD890E936EA36670EEE
:100CB000E926000EEA22EECFDEFFEDCFDDFF0FD0FA
:100CC00024510F0BE96EEA6AD890E936EA366B0ECA
:100CD000E926000EEA22EECFDEFFEDCFDDFFDECF0C
:100CE000E9FFDDCFEAFFEF50800B09E0DECFE9FF3F
:100CF000DDCFEAFFEF50040B02E0010E286F00D0B9
:100D0000000173AF07D0280E716F040E726F7381EC
:100D1000020E746F020EE15C02E2E16AE552E16EDE
:100D2000E552E7CFD9FF12000F0126A115D063C00D
:100D3000E9FF64C0EAFFEF5080080DE16BC0E9FFF6
:100D40006CC0EAFFEF50840806E163C0E9FF64C0AD
:100D5000EAFF8C0EEF6E2691629A12000F01368523
:100D6000629865820001010E806F000EE66EE66AF1
:100D7000E66EE66A750EE66EE66AD2EC0CF00B6E75
:100D8000060EE15E0B5012000001806B000EE66E55
:100D9000E66AE66EE66A740EE66EE66AD2EC0CF07F
:100DA0000B6E060EE15E0B5065920F01369562A444
:100DB00002D06294FCD71200D9CFE6FFE1CFD9FF71
:100DC000E652FD0E0001811553E17E0E8115E840CB
:100DD0007F0B040DF3CF63F0F4CF64F0000E6327B4
:100DE000040E642363C065F064C066F0657563C07B
:100DF000E9FF64C0EAFFEF503C0BE842E8420D080F
:100E000035E1DF6A080EDF5C23E263C0E9FF64C0FE
:100E1000EAFF020EE926000EEA22EE50EFCFEAFFCB
:100E2000E96EEF50E66EDF50EA6A200FE96E040EBD
:100E3000EA22E552E750EF6E63C0E9FF64C0EAFFC3
:100E4000020EE926000EEA22EE2AEF22DF2ADAD786
:100E500063C0E9FF64C0EAFF020EE926000EEA2241
:100E6000200EEE6E040EED6E0DD801D03AD805D0EE
:100E7000FD0E8115040801E159D8E552E552E7CF8E
:100E8000D9FF120000016F6B896B8C6B8D6B836BCC
:100E9000706B6BC0E9FF6CC0EAFFEF9E6B756BC0B7
:100EA000E9FF6CC0EAFFEF9E6B7565C0E9FF66C0A5
:100EB000EAFFEF9E736B746B756B786B796B7A6B73
:100EC00092D8000EE66EE66AE66EE66A030EE66EFD
:100ED000E66AD2EC0CF00B6E060EE15E0B50EBEF07
:100EE00003F0020E0001705D02E138DD1ED0706B70
:100EF00083511AE165C0E9FF66C0EAFFEE52080EB1
:100F0000EF6E65C0E9FF66C0EAFF020EE926000E3B
:100F1000EA22200EEE6E040EED6E65C0E9FF66C09B
:100F2000EAFF8C0EEF6E01D0836B1200D9CFE6FF83
:100F3000E1CFD9FFE6526BC0E9FF6CC0EAFFEF508A
:100F4000400B01E0010EDF6E00016B75080E605D65
:100F50000CE122C438FF0F01385104E00001100EEB
:100F6000606F03D00001040E606F700528E16BC054
:100F7000E9FF6CC0EAFF020EE926000EEA22280E05
:100F8000EE6E040EED6E88DC020E00016F5D07E16F
:100F90006BC0E9FF6CC0EAFF840EEF6E0FD0DF502C
:100FA00007E16BC0E9FF6CC0EAFFC80EEF6E06D028
:100FB0006BC0E9FF6CC0EAFF880EEF6E0FD078AF10
:100FC0000CD07B517C1107E005D07CC0FAFF0001FA
:100FD0007B51F96EFADF0001789F706BE552E552A4
:100FE000E7CFD9FF120004012051600BE842E8422C
:100FF000E842E842E842000901E058D021510C0AD9
:1010000054E00B0A43E00C0A35E0010A26E00B0A23
:1010100022E0020A20E0030A1CE0080A10E0010AAC
:101020000CE00F0A08E0030A01E03FD00001738FD3
:10103000080E606F3BD0B0DD39D030DD37D0000115
:10104000610E716F000E726F7381010E746F738F7A
:101050002DD002DE2BD02BD829D024510001716F66
:10106000726B620E7127000E72237381010E746F12
:10107000738F1CD00001738F04012451EA6A620F40
:10108000E96E000EEA2222C4EFFF10D0000EE66ED9
:10109000E66AE66EE66A020EE66EE66AD2EC0CF0EE
:1010A0000B6E060EE15E0B5001D000D01200D9CFBE
:1010B000E6FFE1CFD9FF050EE1260401220510E18C
:1010C00020511F0B00090CE10001738F030E040176
:1010D000215D04E10001010E7F6F02D000017F6BF2
:1010E0000401225101E020D120511F0B020801E030
:1010F0001BD124510F0B000901E116D124510F0B14
:10110000010801E211D1200E0001605D01E00CD167
:10111000738F040124BF1AD024510F0BE96EEA6AC1
:10112000D890E936EA36670EE926000EEA22EECFBD
:10113000DEFFEDCFDDFF24510F0BEA6A860FE96E6B
:10114000000EEA22020EEFCFDBFF19D024510F0B65
:10115000E96EEA6AD890E936EA366B0EE926000EA7
:10116000EA22EECFDEFFEDCFDDFF24510F0BEA6A5E
:10117000840FE96E000EEA22020EEFCFDBFFD9509A
:10118000020FE96EDACFEAFFEF50010B03E1000E28
:10119000DF9401D0DF8424BF10D024510F0BE96EFF
:1011A000EA6AD890E936EA36670EE926000EEA22A6
:1011B000DECFEEFFDDCFEDFF0FD024510F0BE96E38
:1011C000EA6AD890E936EA366B0EE926000EEA2282
:1011D000DECFEEFFDDCFEDFF030E215D23E1DECF9D
:1011E000E9FFDDCFEAFFEF50800B13E024BF09D009
:1011F00024510F0BEA6A860FE96E000EEA22EF8295
:1012000008D024510F0BEA6A840FE96E000EEA221F
:10121000EF82840E0B6EDECFE9FFDDCFEAFF0B50CD
:10122000EF1282D0DF74DECFE9FFDDCFEAFFEF50AF
:10123000800B1BE0DECFE9FFDDCFEAFFEF9EDECFC4
:10124000E9FFDDCFEAFFEF8C020EE66EE66ADECF45
:10125000E6FFDDCFE6FF050EE66EE66AD2EC0CF0A7
:101260000B6E060EE15E0B5005D0DECFE9FFDDCF41
:10127000EAFFEF8CDF74D950020FE96EDACFEAFF94
:10128000EF50020B07E1DECFE9FFDDCFEAFFEF50C1
:10129000800B2DE0040124BF09D024510F0BEA6A12
:1012A000860FE96E000EEA22EF9208D024510F0B50
:1012B000EA6A840FE96E000EEA22EF923B0E0B6E93
:1012C000DECFE9FFDDCFEAFF0B50EF16020EE66E30
:1012D000E66ADECFE6FFDDCFE6FF050EE66EE66AE4
:1012E000D2EC0CF00B6E060EE15E0B5008D03B0EFC
:1012F0000B6EDECFE9FFDDCFEAFF0B50EF160401E6
:1013000024510F0B0C6A260F0B6E0F0E0C22030ECE
:101310000BC0DBFF040E0CC0DBFF030EDBCFE9FFCD
:10132000040EDBCFEAFFEF90050EE15C02E2E16A1A
:0C133000E552E16EE552E7CFD9FF120054
:04133C00D9CFE6FF20
:10134000E1CFD9FF030EE126020EDB68DE6ADD6A1B
:10135000DECF0BF0DDCF0CF0FC0EDB5000010CAE4D
:1013600002D0D89003D00B5C000E0C5819E2FD0E91
:10137000DBCF0BF0FE0EDBCF0CF0DE500B24E96E62
:10138000DD500C20EA6E020EDBCFE7FFEF50E71ACC
:10139000020EE7CFDBFFDF2A010E01E3DB2AD8D7FD
:1013A000020EDB500B6E030EE15C03E200D0E16A3B
:1013B000E552E16E0B50E552E7CFD9FF1200000174
:1013C0009451270A05E0030A01E011D0FF000FD075
:1013D0000B6A400E0C6E04D00CC0FAFF0B50F96E75
:1013E000FBDF030EE66EACEC0DF0E55200D0000121
:1013F000946B1200D9CFE6FFE1CFD9FF090EE126A9
:10140000070EDB6A020EF36E080EF3CFDBFF00015E
:101410009A07000E9B5B9A519B1105E1030E841AFB
:101420009A692F0E9B6F200E0001E76E6019E8AEDF
:1014300002D0E73402D0E750605D03E36550020B51
:1014400001E059D200019651971102E1000E08D037
:1014500096C0E9FF97C0EAFFEF50800B01E0010E54
:10146000000908E09551952BFF0803E1945101E034
:10147000A6DF41D2956B400EE66EE66AE668400E46
:10148000E66E0E0EE66EB0EC11F00B6E050EE15E30
:101490000B50060E00CEDBFFDB50400A01E1E7D126
:1014A000680A01E1B6D10F0A01E1A6D1010A01E102
:1014B000FFD0030A01E19CD00C0A33E02E0A15E0AC
:1014C000230A0FE0140A06E00B0EF36E070EF3CFAB
:1014D000DBFFD4D10F0E81140E01426F080EDB2A00
:1014E000CDD10001240E946FC9D1060EE66EE66AD6
:1014F0008E0EE66E000EE66E420EE66E0E0EE66E86
:1015000085EC11F00B6E060EE15E0B50060E0B6EB5
:10151000080EDBCFE7FF0B50E726080EE7CFDBFF17
:10152000ADD1FF0E00019C5D06E1110EF36E070EBA
:10153000F3CFDBFFA3D1020EE66EE66A010EE66E84
:101540000E0EE66ED9CFE6FFDACFE6FF85EC11F09E
:101550000B6E060EE15E0B50DECF0BF0DDCF0CF014
:10156000000E0B5C400E0C5805E2070EF36EF3CF35
:10157000DBFF84D1020EE66EE66A030EE66E0E0E07
:10158000E66ED950020FE66E000EDA20E66E85ECAC
:1015900011F00B6E060EE15E0B50020EDBCF0FF06A
:1015A000030EDBCF10F0DE500F240B6EDD50102049
:1015B0000C6E0D6A0E6A0BC0E6FF0CC0E6FF0DC094
:1015C000E6FF0EC0E6FFDECF11F0DDCF12F0136AAA
:1015D000146A11C0E6FF12C0E6FF13C0E6FF14C094
:1015E000E6FFADEC0FF0156E080EE15E155046D12A
:1015F000FF0E00019C5D06E1110EF36E070EF3CFA6
:10160000DBFF3CD1020EE66EE66A010EE66E0E0EC0
:10161000E66ED9CFE6FFDACFE6FF85EC11F00B6E70
:10162000060EE15E0B50040E03CEDBFFDB503C08E0
:1016300006E2080EF36E070EF3CFDBFF1FD1430E59
:10164000E66E0E0EE66E040EDBCFE6FFE66ADECF38
:101650000BF0DDCF0CF00D6A0E6A0BC0E6FF0CC07C
:10166000E6FF0DC0E6FF0EC0E6FF3CEC11F00F6E8A
:10167000080EE15E0F50040EDBCFE6FF430EE66E70
:101680000E0EE66E5BDEE552E552E552E76E050EA4
:10169000E7CFDBFFDBCF42FE040EDB280B6E080E2C
:1016A000DBCFE7FF0B50E726080EE7CFDBFFE6D0E6
:1016B000FF0E00019C5D06E1110EF36E070EF3CFE5
:1016C000DBFFDCD0020EE66EE66A010EE66E0E0E61
:1016D000E66ED9CFE6FFDACFE6FF85EC11F00B6EB0
:1016E000060EE15E0B50DECF0BF0DDCF0CF0000EEE
:1016F0000B5C400E0C5805E2070EF36EF3CFDBFFD8
:10170000BDD0040E03CEDBFFDB50200806E2080E3E
:10171000F36E070EF3CFDBFFB1D0040EDBCFE6FF95
:10172000050EE66E0E0EE66E09DEE552E552E55256
:10173000E76E050EE7CFDBFFDB500E01045D06E030
:10174000090EF36E070EF3CFDBFF98D0DF50200BAE
:1017500021E1400EE66EE66AE668800EE66E0E0E49
:10176000E66EB0EC11F00B6E050EE15E0B50040E50
:10177000DBCFE6FFE66A050EE66E0E0EE66E800E25
:10178000E66E0E0EE66E85EC11F00B6E060EE15E57
:101790000B5031D0040EDBCFE6FFE66A050EE66E95
:1017A0000E0EE66EA00EE66E0E0EE66E85EC11F0E5
:1017B0000B6E060EE15E0B50800EE66E0E0EE66EB0
:1017C000400EE66EE66ADECF0BF0DDCF0CF0200EA9
:1017D0000B5E000E0C5A0D6A0E6A0BC0E6FF0CC0C1
:1017E000E6FF0DC0E6FF0EC0E6FFBEEC0EF00F6E8A
:1017F000080EE15E0F5042D0FF0E00019C5D06E135
:10180000110EF36E070EF3CFDBFF38D0270E946F67
:1018100035D00E01015106E00A0EF36E070EF3CF2C
:10182000DBFF2CD001CE9CF0010EE66ED80EE66EEA
:10183000E66AE66AE66AE66EE66AE66AADEC0FF02C
:101840000B6E080EE15E0B50010EE66E0E0EE66E9C
:10185000010EE66EE66AE66AD80EE66EE66AE66AAB
:10186000BEEC0EF00B6E080EE15E0B5007D016ECCE
:101870000EF0E76E070EE7CFDBFF00D000019851B6
:10188000991102E1000E08D098C0E9FF99C0EAFF63
:10189000EF50800B01E0010E00091AE1070EDBCFCB
:1018A00040FE060EDBCF41FE080EDBCFE6FF400E0A
:1018B000E66E0E0EE66E010EE66EE66EB2EC01F01E
:1018C0000B6E050EE15E0B50F3CF98F0F4CF99F05C
:1018D000400EE66E000EE66E0E0EE66EE66A010E35
:1018E000E66EB2EC01F00B6E050EE15E0B50F3CF2D
:1018F00096F0F4CF97F0090EE15C02E2E16AE5525E
:10190000E16EE552E7CFD9FF1200D9CFE6FFE1CF74
:10191000D9FF020EE126580EDE6E020EDD6E9B8CA4
:10192000DFCF0BF0DF06010EDBCF0CF001E2DB06B0
:101930000B500C1001E0F4D70F0148694969F00E13
:10194000926E9368946895683C0E966E020E846E53
:1019500016EC00F0020EE15C02E2E16AE552E16E93
:10196000E552E7CFD9FF120029EF10F01E0EE66E08
:10197000010EE66E7BEC01F0E552E552400EE66E9C
:10198000000EE66E0E0EE66EE66A010EE66EB2EC34
:1019900001F00B6E050EE15E0B50F3CF96F0F4CF25
:1019A00097F01200D9CFE6FFE1CFD9FFFD0EDBCFD4
:1019B00006F0FE0EDBCF07F0050E061801E107501A
:1019C00015E0030E061801E107500EE0010E06189F
:1019D00001E1075007E0720E061801E1075001E02F
:1019E00006D005D0C3DF03D0BFDF01D000D0010E89
:1019F00000D0E552E7CFD9FF1200D9CFE6FFE1CF03
:101A0000D9FF020EE126DE68DD68FC50800B03E1A1
:101A1000FC50400B05E0100EE66EACEC0DF0E5520C
:101A2000D0B605D0060EE66EACEC0DF0E552D9CF7F
:101A3000E6FFDACFE6FF020EE66EE66AE66A400EE1
:101A4000E66EE66AE66A3CEC11F00B6E080EE15EAB
:101A50000B509C0EE66E000EE66E010EE66EE66A18
:101A6000E66AD80EE66EE66AE66A3CEC11F00B6EAA
:101A7000080EE15E0B50D050100B16E0D9CFE9FFF5
:101A8000DACFEAFFFF0EEE1802E1FF0EED180CE0D0
:101A900000019C0509E10B6A400E0C6E04D00CC0DD
:101AA000FAFF0B50F96EFBDF30DF0400A6EC00F00C
:101AB000A1DCFBD7020EE15C02E2E16AE552E16ED5
:081AC000E552E7CFD9FF120047
:081AC8008050040B01E0010E47
:101AD0000B6E8050080B01E0010EE8240B2400D0AF
:101AE0001200D9CFE6FFE1CFD9FFFE0EDB50010B8C
:101AF000E8B08084E8A08094FE0EDB50020BE84042
:101B00007F0BE8B08086E8A08096E552E7CFD9FF4A
:101B100012008050010B0B6E8050020B01E0010E91
:101B2000E8240B2400D01200D9CFE6FFE1CFD9FF83
:101B3000FE0EDB50010BE8B08080E8A08090FE0E26
:101B4000DB50020BE8407F0BE8B08082E8A0809277
:101B5000E552E7CFD9FF1200D9CFE6FFE1CFD9FF99
:101B6000E652C0903C0E966EDF6ADFCF0BF0FE0EA1
:101B7000DB50E76E0B18E8AE02D0E73402D0E75036
:101B80000B5C0DE2020E846EE668CAEC11F0E552C1
:101B9000846AE668CAEC11F0E552DF2AE6D7E66807
:101BA000CAEC11F0E552E668CAEC11F0E552DCD758
:101BB000E552E552E7CFD9FF1200D9CFE6FFE1CFDA
:101BC000D9FF040EE126020EDB6A030E80CFDBFF95
:101BD000DE6ADD6ADECF0BF0DDCF0CF0FF0E0B5CB2
:101BE000FF0E0C5814E2FE0EDB50F36E020EDBCF3C
:101BF000F4FFF350F45C0BE2030EDB50805C02E078
:101C0000020EDB2ADF2A010E01E3DB2AE3D7020EF4
:101C1000DB500B6E040EE15C03E200D0E16AE5529A
:101C2000E16E0B50E552E7CFD9FF1200D9CFE6FFA6
:101C3000E1CFD9FF050EE126030EDF6EE66A74DF01
:101C4000E55267DF000906E0180EF36E040EF3CFCD
:101C5000DBFF86D0030EE66E67DFE5525ADF03082E
:101C600006E0180EF36E040EF3CFDBFF79D0E66AC0
:101C700038DFE55229DF000906E0170EF36E040E87
:101C8000F3CFDBFF6DD0030EE66E2BDFE5521CDFDA
:101C9000030806E0170EF36E040EF3CFDBFF60D0EF
:101CA000E66A1FDFE552DFCFE6FF87DFE552E76E2A
:101CB000010EE7CFDBFF030EE66E13DFE552DFCF49
:101CC000E6FF7BDFE552E76E020EE7CFDBFFE66E55
:101CD00008DFE552DFCFE6FF70DFE552E76E030E67
:101CE000E7CFDBFFDF50F36E010EDB50F35C12E059
:101CF000DF50F36E020EDB50F35C0CE0DF50F36E4E
:101D0000030EDB50F35C06E0130EF36E040EF3CF0C
:101D1000DBFF26D0DF50F36E010EDB50F35C06E0F4
:101D2000140EF36E040EF3CFDBFF1AD0DF50F36E08
:101D3000020EDB50F35C06E0150EF36E040EF3CFDB
:101D4000DBFF0ED0DF50F36E030EDB50F35C06E0DA
:101D5000160EF36E040EF3CFDBFF02D0040EDB6A27
:101D6000DB500B6E050EE15C03E200D0E16AE55248
:0C1D7000E16E0B50E552E7CFD9FF1200E6
:041D7C00D9CFE6FFD6
:101D8000DACFE6FFE1CFD9FFE2CFDAFF060EE1249A
:101D900002E3E168E652E16EDF6A010EDB6AD950C8
:101DA000FA0FE96EFF0EDA20EA6E020EEECFDBFFCD
:101DB000030EEECFDBFF040EEECFDBFF050EEECF02
:101DC000DBFFD950FA0FE96EFF0EDA20EA6E060E3D
:101DD000E76ED890030EEB32020EEB32010EEB32BF
:101DE000EF32E706F6E1D950FA0FE96EFF0EDA207E
:101DF000EA6E060EE76ED890EF36010EEB36020E55
:101E0000EB36030EEB36E706F6E1D950FA0FE96E32
:101E1000FF0EDA20EA6E400EEE26000EEE22000ED5
:101E2000EE22000EEE22FA0EDBCF0FF0FB0EDBCF20
:101E300010F0FC0EDBCF11F0FD0EDBCF12F0D9500D
:101E4000020FE96E000EDA20EA6EEE500F5C0B6EA8
:101E5000EE5010580C6EEE5011580D6EEE50125898
:101E60000E6E0B50DF6ED950F80FE96EFF0EDA20C0
:101E7000EA6EEE50ED1065E0040EDB50F86E030ED6
:101E8000DB50F76E020EDB50F66EDF50DF06000906
:101E90001AE0F60EDBCFE9FFDB2AF70EDBCFEAFF15
:101EA00001E3DB2AEF50F56E0D00F80EDB06DBCF09
:101EB0000BF0F90E01E2DB06DBCF0CF00B500C103F
:101EC00001E101D0E2D7040EDB50F86E030EDB50C7
:101ED000F76E020EDB50F66EA684F2AE04D0F29ED0
:101EE000DE52010EDD6E550EA76EAA0EA76EA682FB
:101EF000A694010EDB5003E0F28E010EDB6A400E69
:101F0000DF6E400E0B6E0C6A0D6A0E6AD950020F1E
:101F1000E96E000EDA20EA6EEE500B26EE500C222F
:101F2000EE500D22EE500E22020E0BC0DBFF030E10
:101F30000CC0DBFF040E0DC0DBFF050E0EC0DBFF87
:101F400092D7060EE15C02E2E16AE552E16EE552EB
:0A1F5000E5CFDAFFE7CFD9FF12005A
:061F5A00D9CFE6FFDACF4B
:101F6000E6FFE1CFD9FFE2CFDAFFE652E652E652D2
:101F7000E652E652DF6AD950FA0FE96EFF0EDA2018
:101F8000EA6E010EEECFDBFF020EEECFDBFF030E9B
:101F9000EECFDBFF040EEECFDBFFF60EDBCF0BF058
:101FA000F70EDBCF0CF0F80EDBCF0DF0F90EDBCF28
:101FB0000EF048D80B50EE5C0C50EE580D50EE5819
:101FC0000E50EE5833E2030EDB50F86E020EDB507B
:101FD000F76E010EDB50F66EA684A688F2AE03D033
:101FE000F29E010EDF6E550EA76EAA0EA76EA68298
:101FF000DF5001E0F28E0B6A040E0C6E0D6A0E6A61
:1020000021D8EE500B26EE500C22EE500D22EE5051
:102010000E22010E0BC0DBFF020E0CC0DBFF030E15
:102020000DC0DBFF040E0EC0DBFFB7D7050EE15C71
:1020300002E2E16AE552E16EE552E5CFDAFFE7CF71
:10204000D9FF1200D950010FE96E000EDA20EA6EB6
:0220500012007C
:0E205200040120511F0B010801E068D0245149
:1020600001E065D0060E215D25E12351230A21E020
:10207000010A11E0030A01E01DD0000161050AE137
:102080000001540E716F210E726F090E746F756B23
:10209000C00E736F0FD0000161050AE10001B50E9B
:1020A000716F210E726F1D0E746F756BC00E736FA2
:1020B00001D000D004012051600BE842E842E84220
:1020C000E842E842010801E032D021510B0A29E040
:1020D000080A1CE0090A14E0080A07E00B0A04E0F9
:1020E000080A01E024D023D022D00001A70E716F8E
:1020F000000E726F010E746F756BC10E736F17D087
:102100000001800E736F23C4A7F011D00001A80E48
:10211000716F000E726F010E746F756B810E736FAD
:1021200006D00001800E736F22C4A8F000D0120008
:102130001201000200000008D804DAF802000102CF
:10214000000109022900010100C0960904000002F3
:1021500003000000092111010001221D0007058173
:102160000340000107050103400001040309041AAC
:1021700003480075006700680073006B0069002069
:10218000004C00740064002E002C0343006F006CB0
:10219000006F007200480075006700200028006290
:1021A000006F006F0074006C006F006100640065D8
:1021B00000720029000600FF0901A1011901294050
:1021C000150026FF007508954081021901294091EC
:0A21D00002C042216B216F2189211A
:0621DA001E0EF66E000E61
:1021E000F76E000EF86E00010900F550A26F0900AD
:1021F000F550A36F03E1A26701D03DD00900F5506F
:102200009D6F0900F5509E6F0900F5509F6F090002
:102210000900F550E96E0900F550EA6E0900090061
:102220000900F550A06F0900F550A16F09000900E1
:10223000F6CFA4F0F7CFA5F0F8CFA6F09DC0F6FF3B
:102240009EC0F7FF9FC0F8FF0001A05302E1A15319
:1022500007E00900F550EE6EA007F8E2A107F9D7F4
:10226000A4C0F6FFA5C0F7FFA6C0F8FF0001A207B3
:08227000000EA35BBFD71200B2
:08227800D9CFE6FFDACFE6FF43
:10228000E1CFD9FFE2CFDAFFE652E652E652E6525C
:10229000D9CFE9FFDACFEAFFFA0EDBCFEEFFFB0E74
:1022A000DBCFEEFFFC0EDBCFEEFFFD0EDBCFEEFF54
:1022B000020EDB50F86E010EDB50F76EDF50F66E4B
:1022C000F80EDBCF0BF0DB06F90EDBCF0CF001E2F2
:1022D000DB060B500C100DE00900F60EDBCFE9FF1A
:1022E000DB2AF70EDBCFEAFF01E3DB2AF5CFEFFFB6
:1022F000E7D7040EE15C02E2E16AE552E16EE552E5
:0A230000E5CFDAFFE7CFD9FF1200A6
:06230A00D9CFE6FFDACF97
:10231000E6FFFA0EE3CFD9FFFB0EE3CFDAFFFC0EA8
:10232000E3CFE9FFFD0EE3CFEAFFE9CFF3FFEACF0A
:10233000F4FFF80EE35003E1F90EE35008E0F80E65
:10234000E30602E2F90EE306DECFEEFFF2D7FF0E60
:10235000E3CFDAFFE552FF0EE3CFD9FFE5521200DB
:10236000FE0EE3CFE9FFFF0EE3CFEAFFE9CFF3FF75
:10237000EACFF4FFFB0EE35003E1FC0EE35009E06B
:10238000FB0EE30602E2FC0EE306FD0EE350EE6EEA
:04239000F1D712006F
:0C239400FF0EE350176EEF0E01D0F30EA9
:1023A000E76EE72ED1EF11F00C0E166EE76AE72EFE
:1023B000D7EF11F0162ED6EF11F0172ECFEF11F048
:0223C000120009
:0E23C200C00EF36E00EE00F00E0E01D81200F9
:1023D000EA6002D0EE6AFCD7F350E9601200EE6AC0
:0223E000FCD728
:0E23E2001DEE00F02DEE00F0F86A0A9CEDEC06
:0E23F00010F003EC00F0FDEC0CF0FBD7120037
:0223FE000000DD
:0D240000010003000000000000000000FFCC
:0C400000030EE66EACEC0DF0E552120071
:01FFF800AB5D
:01FFF900F710
:01FFFA005DA9
:01FFFB00FB0A
:01FFFC0063A1
:01FFFD00F80B
:01FFFE008181
:01FFFF00F110
:00000001FF
